{
  "_format": "hh-sol-artifact-1",
  "contractName": "ERC721Universal",
  "sourceName": "contracts/ERC721Universal.sol",
  "abi": [
    {
      "inputs": [
        {
          "internalType": "address",
          "name": "owner_",
          "type": "address"
        },
        {
          "internalType": "string",
          "name": "name_",
          "type": "string"
        },
        {
          "internalType": "string",
          "name": "symbol_",
          "type": "string"
        },
        {
          "internalType": "string",
          "name": "baseURI_",
          "type": "string"
        }
      ],
      "stateMutability": "nonpayable",
      "type": "constructor"
    },
    {
      "inputs": [],
      "name": "BaseURIAlreadyLocked",
      "type": "error"
    },
    {
      "inputs": [
        {
          "internalType": "address",
          "name": "sender",
          "type": "address"
        },
        {
          "internalType": "uint256",
          "name": "tokenId",
          "type": "uint256"
        },
        {
          "internalType": "address",
          "name": "owner",
          "type": "address"
        }
      ],
      "name": "ERC721IncorrectOwner",
      "type": "error"
    },
    {
      "inputs": [
        {
          "internalType": "address",
          "name": "operator",
          "type": "address"
        },
        {
          "internalType": "uint256",
          "name": "tokenId",
          "type": "uint256"
        }
      ],
      "name": "ERC721InsufficientApproval",
      "type": "error"
    },
    {
      "inputs": [
        {
          "internalType": "address",
          "name": "approver",
          "type": "address"
        }
      ],
      "name": "ERC721InvalidApprover",
      "type": "error"
    },
    {
      "inputs": [
        {
          "internalType": "address",
          "name": "operator",
          "type": "address"
        }
      ],
      "name": "ERC721InvalidOperator",
      "type": "error"
    },
    {
      "inputs": [
        {
          "internalType": "address",
          "name": "owner",
          "type": "address"
        }
      ],
      "name": "ERC721InvalidOwner",
      "type": "error"
    },
    {
      "inputs": [
        {
          "internalType": "address",
          "name": "receiver",
          "type": "address"
        }
      ],
      "name": "ERC721InvalidReceiver",
      "type": "error"
    },
    {
      "inputs": [
        {
          "internalType": "address",
          "name": "sender",
          "type": "address"
        }
      ],
      "name": "ERC721InvalidSender",
      "type": "error"
    },
    {
      "inputs": [
        {
          "internalType": "uint256",
          "name": "tokenId",
          "type": "uint256"
        }
      ],
      "name": "ERC721NonexistentToken",
      "type": "error"
    },
    {
      "inputs": [
        {
          "internalType": "uint256",
          "name": "tokenId",
          "type": "uint256"
        }
      ],
      "name": "ERC721UniversalAlreadyTransferred",
      "type": "error"
    },
    {
      "inputs": [
        {
          "internalType": "address",
          "name": "owner",
          "type": "address"
        }
      ],
      "name": "OwnableInvalidOwner",
      "type": "error"
    },
    {
      "inputs": [
        {
          "internalType": "address",
          "name": "account",
          "type": "address"
        }
      ],
      "name": "OwnableUnauthorizedAccount",
      "type": "error"
    },
    {
      "anonymous": false,
      "inputs": [
        {
          "indexed": true,
          "internalType": "address",
          "name": "owner",
          "type": "address"
        },
        {
          "indexed": true,
          "internalType": "address",
          "name": "approved",
          "type": "address"
        },
        {
          "indexed": true,
          "internalType": "uint256",
          "name": "tokenId",
          "type": "uint256"
        }
      ],
      "name": "Approval",
      "type": "event"
    },
    {
      "anonymous": false,
      "inputs": [
        {
          "indexed": true,
          "internalType": "address",
          "name": "owner",
          "type": "address"
        },
        {
          "indexed": true,
          "internalType": "address",
          "name": "operator",
          "type": "address"
        },
        {
          "indexed": false,
          "internalType": "bool",
          "name": "approved",
          "type": "bool"
        }
      ],
      "name": "ApprovalForAll",
      "type": "event"
    },
    {
      "anonymous": false,
      "inputs": [
        {
          "indexed": false,
          "internalType": "string",
          "name": "baseURI",
          "type": "string"
        }
      ],
      "name": "LockedBaseURI",
      "type": "event"
    },
    {
      "anonymous": false,
      "inputs": [
        {
          "indexed": false,
          "internalType": "address",
          "name": "newContractAddress",
          "type": "address"
        },
        {
          "indexed": false,
          "internalType": "string",
          "name": "baseURI",
          "type": "string"
        },
        {
          "indexed": false,
          "internalType": "string",
          "name": "name",
          "type": "string"
        },
        {
          "indexed": false,
          "internalType": "string",
          "name": "symbol",
          "type": "string"
        }
      ],
      "name": "NewERC721Universal",
      "type": "event"
    },
    {
      "anonymous": false,
      "inputs": [
        {
          "indexed": true,
          "internalType": "address",
          "name": "previousOwner",
          "type": "address"
        },
        {
          "indexed": true,
          "internalType": "address",
          "name": "newOwner",
          "type": "address"
        }
      ],
      "name": "OwnershipTransferred",
      "type": "event"
    },
    {
      "anonymous": false,
      "inputs": [
        {
          "indexed": true,
          "internalType": "address",
          "name": "from",
          "type": "address"
        },
        {
          "indexed": true,
          "internalType": "address",
          "name": "to",
          "type": "address"
        },
        {
          "indexed": true,
          "internalType": "uint256",
          "name": "tokenId",
          "type": "uint256"
        }
      ],
      "name": "Transfer",
      "type": "event"
    },
    {
      "anonymous": false,
      "inputs": [
        {
          "indexed": false,
          "internalType": "string",
          "name": "newBaseURI",
          "type": "string"
        }
      ],
      "name": "UpdatedBaseURI",
      "type": "event"
    },
    {
      "anonymous": false,
      "inputs": [
        {
          "indexed": false,
          "internalType": "string",
          "name": "newPrefix",
          "type": "string"
        },
        {
          "indexed": false,
          "internalType": "string",
          "name": "newSuffix",
          "type": "string"
        }
      ],
      "name": "UpdatedTokenIdAffixes",
      "type": "event"
    },
    {
      "inputs": [],
      "name": "ERC721UniversalVersion",
      "outputs": [
        {
          "internalType": "uint32",
          "name": "",
          "type": "uint32"
        }
      ],
      "stateMutability": "view",
      "type": "function"
    },
    {
      "inputs": [
        {
          "internalType": "address",
          "name": "to",
          "type": "address"
        },
        {
          "internalType": "uint256",
          "name": "tokenId",
          "type": "uint256"
        }
      ],
      "name": "approve",
      "outputs": [],
      "stateMutability": "nonpayable",
      "type": "function"
    },
    {
      "inputs": [
        {
          "internalType": "address",
          "name": "_owner",
          "type": "address"
        }
      ],
      "name": "balanceOf",
      "outputs": [
        {
          "internalType": "uint256",
          "name": "",
          "type": "uint256"
        }
      ],
      "stateMutability": "pure",
      "type": "function"
    },
    {
      "inputs": [],
      "name": "baseURI",
      "outputs": [
        {
          "internalType": "string",
          "name": "",
          "type": "string"
        }
      ],
      "stateMutability": "view",
      "type": "function"
    },
    {
      "inputs": [
        {
          "internalType": "uint256",
          "name": "tokenId",
          "type": "uint256"
        }
      ],
      "name": "broadcastMint",
      "outputs": [],
      "stateMutability": "nonpayable",
      "type": "function"
    },
    {
      "inputs": [
        {
          "internalType": "uint256[]",
          "name": "tokenIds",
          "type": "uint256[]"
        }
      ],
      "name": "broadcastMintBatch",
      "outputs": [],
      "stateMutability": "nonpayable",
      "type": "function"
    },
    {
      "inputs": [
        {
          "internalType": "uint256",
          "name": "tokenId",
          "type": "uint256"
        }
      ],
      "name": "broadcastSelfTransfer",
      "outputs": [],
      "stateMutability": "nonpayable",
      "type": "function"
    },
    {
      "inputs": [
        {
          "internalType": "uint256[]",
          "name": "tokenIds",
          "type": "uint256[]"
        }
      ],
      "name": "broadcastSelfTransferBatch",
      "outputs": [],
      "stateMutability": "nonpayable",
      "type": "function"
    },
    {
      "inputs": [
        {
          "internalType": "uint256",
          "name": "tokenId",
          "type": "uint256"
        }
      ],
      "name": "burn",
      "outputs": [],
      "stateMutability": "nonpayable",
      "type": "function"
    },
    {
      "inputs": [
        {
          "internalType": "uint256",
          "name": "tokenId",
          "type": "uint256"
        }
      ],
      "name": "getApproved",
      "outputs": [
        {
          "internalType": "address",
          "name": "",
          "type": "address"
        }
      ],
      "stateMutability": "view",
      "type": "function"
    },
    {
      "inputs": [
        {
          "internalType": "uint256",
          "name": "tokenId",
          "type": "uint256"
        }
      ],
      "name": "initOwner",
      "outputs": [
        {
          "internalType": "address",
          "name": "",
          "type": "address"
        }
      ],
      "stateMutability": "pure",
      "type": "function"
    },
    {
      "inputs": [
        {
          "internalType": "address",
          "name": "owner",
          "type": "address"
        },
        {
          "internalType": "address",
          "name": "operator",
          "type": "address"
        }
      ],
      "name": "isApprovedForAll",
      "outputs": [
        {
          "internalType": "bool",
          "name": "",
          "type": "bool"
        }
      ],
      "stateMutability": "view",
      "type": "function"
    },
    {
      "inputs": [],
      "name": "isBaseURILocked",
      "outputs": [
        {
          "internalType": "bool",
          "name": "",
          "type": "bool"
        }
      ],
      "stateMutability": "view",
      "type": "function"
    },
    {
      "inputs": [
        {
          "internalType": "uint256",
          "name": "tokenId",
          "type": "uint256"
        }
      ],
      "name": "isBurned",
      "outputs": [
        {
          "internalType": "bool",
          "name": "",
          "type": "bool"
        }
      ],
      "stateMutability": "view",
      "type": "function"
    },
    {
      "inputs": [],
      "name": "lockBaseURI",
      "outputs": [],
      "stateMutability": "nonpayable",
      "type": "function"
    },
    {
      "inputs": [],
      "name": "name",
      "outputs": [
        {
          "internalType": "string",
          "name": "",
          "type": "string"
        }
      ],
      "stateMutability": "view",
      "type": "function"
    },
    {
      "inputs": [],
      "name": "owner",
      "outputs": [
        {
          "internalType": "address",
          "name": "",
          "type": "address"
        }
      ],
      "stateMutability": "view",
      "type": "function"
    },
    {
      "inputs": [
        {
          "internalType": "uint256",
          "name": "tokenId",
          "type": "uint256"
        }
      ],
      "name": "ownerOf",
      "outputs": [
        {
          "internalType": "address",
          "name": "",
          "type": "address"
        }
      ],
      "stateMutability": "view",
      "type": "function"
    },
    {
      "inputs": [],
      "name": "renounceOwnership",
      "outputs": [],
      "stateMutability": "nonpayable",
      "type": "function"
    },
    {
      "inputs": [
        {
          "internalType": "address",
          "name": "from",
          "type": "address"
        },
        {
          "internalType": "address",
          "name": "to",
          "type": "address"
        },
        {
          "internalType": "uint256",
          "name": "tokenId",
          "type": "uint256"
        }
      ],
      "name": "safeTransferFrom",
      "outputs": [],
      "stateMutability": "nonpayable",
      "type": "function"
    },
    {
      "inputs": [
        {
          "internalType": "address",
          "name": "from",
          "type": "address"
        },
        {
          "internalType": "address",
          "name": "to",
          "type": "address"
        },
        {
          "internalType": "uint256",
          "name": "tokenId",
          "type": "uint256"
        },
        {
          "internalType": "bytes",
          "name": "data",
          "type": "bytes"
        }
      ],
      "name": "safeTransferFrom",
      "outputs": [],
      "stateMutability": "nonpayable",
      "type": "function"
    },
    {
      "inputs": [
        {
          "internalType": "address",
          "name": "operator",
          "type": "address"
        },
        {
          "internalType": "bool",
          "name": "approved",
          "type": "bool"
        }
      ],
      "name": "setApprovalForAll",
      "outputs": [],
      "stateMutability": "nonpayable",
      "type": "function"
    },
    {
      "inputs": [
        {
          "internalType": "bytes4",
          "name": "interfaceId",
          "type": "bytes4"
        }
      ],
      "name": "supportsInterface",
      "outputs": [
        {
          "internalType": "bool",
          "name": "",
          "type": "bool"
        }
      ],
      "stateMutability": "view",
      "type": "function"
    },
    {
      "inputs": [],
      "name": "symbol",
      "outputs": [
        {
          "internalType": "string",
          "name": "",
          "type": "string"
        }
      ],
      "stateMutability": "view",
      "type": "function"
    },
    {
      "inputs": [
        {
          "internalType": "uint256",
          "name": "tokenId",
          "type": "uint256"
        }
      ],
      "name": "tokenURI",
      "outputs": [
        {
          "internalType": "string",
          "name": "",
          "type": "string"
        }
      ],
      "stateMutability": "view",
      "type": "function"
    },
    {
      "inputs": [
        {
          "internalType": "address",
          "name": "from",
          "type": "address"
        },
        {
          "internalType": "address",
          "name": "to",
          "type": "address"
        },
        {
          "internalType": "uint256",
          "name": "tokenId",
          "type": "uint256"
        }
      ],
      "name": "transferFrom",
      "outputs": [],
      "stateMutability": "nonpayable",
      "type": "function"
    },
    {
      "inputs": [
        {
          "internalType": "address",
          "name": "newOwner",
          "type": "address"
        }
      ],
      "name": "transferOwnership",
      "outputs": [],
      "stateMutability": "nonpayable",
      "type": "function"
    },
    {
      "inputs": [
        {
          "internalType": "string",
          "name": "newBaseURI",
          "type": "string"
        }
      ],
      "name": "updateBaseURI",
      "outputs": [],
      "stateMutability": "nonpayable",
      "type": "function"
    },
    {
      "inputs": [
        {
          "internalType": "string",
          "name": "newPrefix",
          "type": "string"
        },
        {
          "internalType": "string",
          "name": "newSuffix",
          "type": "string"
        }
      ],
      "name": "updateTokenIdAffixes",
      "outputs": [],
      "stateMutability": "nonpayable",
      "type": "function"
    },
    {
      "inputs": [
        {
          "internalType": "uint256",
          "name": "tokenId",
          "type": "uint256"
        }
      ],
      "name": "wasEverTransferred",
      "outputs": [
        {
          "internalType": "bool",
          "name": "",
          "type": "bool"
        }
      ],
      "stateMutability": "view",
      "type": "function"
    }
  ],
  "bytecode": "0x60c0604052600b60809081526a08ecadccae4c2d896caf2560ab1b60a0526009906200002c908262000232565b506040805180820190915260018152602960f81b6020820152600a9062000054908262000232565b503480156200006257600080fd5b5060405162001e9f38038062001e9f8339810160408190526200008591620003b5565b838383600062000096838262000232565b506001620000a5828262000232565b5050506001600160a01b038116620000d757604051631e4fbdf760e01b81526000600482015260240160405180910390fd5b620000e2816200013b565b506008620000f1828262000232565b507fb4e1dc82d38c41e054f095ea5f4fc1d08bd9b949513f8ed2544ab8b47b1a82433082858560405162000129949392919062000495565b60405180910390a150505050620004f0565b600680546001600160a01b038381166001600160a01b0319831681179093556040519116919082907f8be0079c531659141344cd1fd0a4f28419497f9722a3daafe3b4186f6b6457e090600090a35050565b634e487b7160e01b600052604160045260246000fd5b600181811c90821680620001b857607f821691505b602082108103620001d957634e487b7160e01b600052602260045260246000fd5b50919050565b601f8211156200022d57600081815260208120601f850160051c81016020861015620002085750805b601f850160051c820191505b81811015620002295782815560010162000214565b5050505b505050565b81516001600160401b038111156200024e576200024e6200018d565b62000266816200025f8454620001a3565b84620001df565b602080601f8311600181146200029e5760008415620002855750858301515b600019600386901b1c1916600185901b17855562000229565b600085815260208120601f198616915b82811015620002cf57888601518255948401946001909101908401620002ae565b5085821015620002ee5787850151600019600388901b60f8161c191681555b5050505050600190811b01905550565b60005b838110156200031b57818101518382015260200162000301565b50506000910152565b600082601f8301126200033657600080fd5b81516001600160401b03808211156200035357620003536200018d565b604051601f8301601f19908116603f011681019082821181831017156200037e576200037e6200018d565b816040528381528660208588010111156200039857600080fd5b620003ab846020830160208901620002fe565b9695505050505050565b60008060008060808587031215620003cc57600080fd5b84516001600160a01b0381168114620003e457600080fd5b60208601519094506001600160401b03808211156200040257600080fd5b620004108883890162000324565b945060408701519150808211156200042757600080fd5b620004358883890162000324565b935060608701519150808211156200044c57600080fd5b506200045b8782880162000324565b91505092959194509250565b6000815180845262000481816020860160208601620002fe565b601f01601f19169290920160200192915050565b6001600160a01b0385168152608060208201819052600090620004bb9083018662000467565b8281036040840152620004cf818662000467565b90508281036060840152620004e5818562000467565b979650505050505050565b61199f80620005006000396000f3fe608060405234801561001057600080fd5b50600436106101da5760003560e01c806370a0823111610104578063b88d4fde116100a2578063e985e9c511610071578063e985e9c5146103f1578063f2fde38b14610404578063f43199aa14610417578063f9b7981e1461043457600080fd5b8063b88d4fde14610395578063c87b56dd146103a8578063d4b89d8d146103bb578063db44fe07146103ce57600080fd5b80638da5cb5b116100de5780638da5cb5b14610356578063931688cb1461036757806395d89b411461037a578063a22cb4651461038257600080fd5b806370a0823114610315578063715018a61461033a57806378f1fefc1461034257600080fd5b806339c9b3051161017c57806353df5c7c1161014b57806353df5c7c146102e157806357854508146102e95780636352211e146102fa5780636c0360eb1461030d57600080fd5b806339c9b3051461029557806342842e0e146102a857806342966c68146102bb57806346d2d496146102ce57600080fd5b8063081812fc116101b8578063081812fc14610231578063095ea7b31461025c578063227a35791461026f57806323b872dd1461028257600080fd5b806301ffc9a7146101df578063065ab9a31461020757806306fdde031461021c575b600080fd5b6101f26101ed3660046111d2565b610447565b60405190151581526020015b60405180910390f35b61021a6102153660046111ef565b6104a8565b005b6102246104ba565b6040516101fe9190611258565b61024461023f3660046111ef565b61054c565b6040516001600160a01b0390911681526020016101fe565b61021a61026a366004611287565b610575565b61021a61027d3660046112b1565b610584565b61021a610290366004611326565b6105c9565b61021a6102a33660046112b1565b610659565b61021a6102b6366004611326565b61069f565b61021a6102c93660046111ef565b6106ba565b61021a6102dc3660046111ef565b6106e2565b61021a6106ed565b6102446102f73660046111ef565b90565b6102446103083660046111ef565b61076e565b610224610779565b61032c610323366004611362565b50600160601b90565b6040519081526020016101fe565b61021a610788565b6006546101f290600160a01b900460ff1681565b6006546001600160a01b0316610244565b61021a6103753660046113c6565b61079c565b61022461081a565b61021a610390366004611408565b610829565b61021a6103a336600461145a565b610834565b6102246103b63660046111ef565b61084b565b6101f26103c93660046111ef565b6108b9565b6101f26103dc3660046111ef565b60076020526000908152604090205460ff1681565b6101f26103ff366004611536565b6108ef565b61021a610412366004611362565b61091d565b61041f600281565b60405163ffffffff90911681526020016101fe565b61021a610442366004611569565b610958565b60006001600160e01b0319821663418fb25560e01b148061047857506001600160e01b03198216639832f94160e01b145b8061049357506001600160e01b031982166323e0ddb160e21b145b806104a257506104a2826109ea565b92915050565b6104b78180610a3a565b610a3a565b50565b6060600080546104c9906115d5565b80601f01602080910402602001604051908101604052809291908181526020018280546104f5906115d5565b80156105425780601f1061051757610100808354040283529160200191610542565b820191906000526020600020905b81548152906001019060200180831161052557829003601f168201915b5050505050905090565b600061055782610aa9565b506000828152600460205260409020546001600160a01b03166104a2565b610580828233610ae1565b5050565b60005b818110156105c4576105b28383838181106105a4576105a461160f565b905060200201356000610a3a565b806105bc81611625565b915050610587565b505050565b6001600160a01b0382166105f857604051633250574960e11b8152600060048201526024015b60405180910390fd5b6000610605838333610aee565b9050836001600160a01b0316816001600160a01b031614610653576040516364283d7b60e01b81526001600160a01b03808616600483015260248201849052821660448201526064016105ef565b50505050565b60005b818110156105c45760008383838181106106785761067861160f565b90506020020135905061068c816104b28390565b508061069781611625565b91505061065c565b6105c483838360405180602001604052806000815250610834565b6106c660008233610aee565b506000908152600760205260409020805460ff19166001179055565b6104b7816000610a3a565b6106f5610be2565b600654600160a01b900460ff161561072057604051633eedd6ab60e21b815260040160405180910390fd5b6006805460ff60a01b1916600160a01b1790556040517f0bca4aaa33018fc07dbe996053fc5b1f6ed8fbcce1261967821bcd7d4e95cd8c906107649060089061164c565b60405180910390a1565b60006104a282610aa9565b6060610783610c0f565b905090565b610790610be2565b61079a6000610c1e565b565b6107a4610be2565b600654600160a01b900460ff16156107cf57604051633eedd6ab60e21b815260040160405180910390fd5b60086107dc828483611725565b507fe12d4d4a70d9b5c313db41dbfde977d2932dd59c55fca4a4af5181b2397c1725828260405161080e92919061180e565b60405180910390a15050565b6060600180546104c9906115d5565b610580338383610c70565b61083f8484846105c9565b61065384848484610d0f565b606061085682610aa9565b506000610861610c0f565b9050600081511161088157604051806020016040528060008152506108b2565b80600961088d85610e38565b600a6040516020016108a29493929190611895565b6040516020818303038152906040525b9392505050565b6000818152600260205260408120546001600160a01b03161515806104a257505060009081526007602052604090205460ff1690565b6001600160a01b03918216600090815260056020908152604080832093909416825291909152205460ff1690565b610925610be2565b6001600160a01b03811661094f57604051631e4fbdf760e01b8152600060048201526024016105ef565b6104b781610c1e565b610960610be2565b600654600160a01b900460ff161561098b57604051633eedd6ab60e21b815260040160405180910390fd5b6009610998848683611725565b50600a6109a6828483611725565b507f59de06b481abf362e010062c9251b68540649936c6b42c718d25ec2e895cbef3848484846040516109dc94939291906118dd565b60405180910390a150505050565b60006001600160e01b031982166380ac58cd60e01b1480610a1b57506001600160e01b03198216635b5e139f60e01b145b806104a257506301ffc9a760e01b6001600160e01b03198316146104a2565b610a43826108b9565b15610a6457604051632af42a8960e01b8152600481018390526024016105ef565b81806001600160a01b0316826001600160a01b03167fddf252ad1be2c89b69c2b068fc378daa952ba7f163c4a11628f55a4df523b3ef60405160405180910390a45050565b600080610ab583610ecb565b90506001600160a01b0381166104a257604051637e27328960e01b8152600481018490526024016105ef565b6105c48383836001610f14565b600080610afa84610ecb565b90506001600160a01b03831615610b1657610b1681848661101a565b6001600160a01b03811615610b5457610b33600085600080610f14565b6001600160a01b038116600090815260036020526040902080546000190190555b6001600160a01b03851615610b83576001600160a01b0385166000908152600360205260409020805460010190555b60008481526002602052604080822080546001600160a01b0319166001600160a01b0389811691821790925591518793918516917fddf252ad1be2c89b69c2b068fc378daa952ba7f163c4a11628f55a4df523b3ef91a4949350505050565b6006546001600160a01b0316331461079a5760405163118cdaa760e01b81523360048201526024016105ef565b6060600880546104c9906115d5565b600680546001600160a01b038381166001600160a01b0319831681179093556040519116919082907f8be0079c531659141344cd1fd0a4f28419497f9722a3daafe3b4186f6b6457e090600090a35050565b6001600160a01b038216610ca257604051630b61174360e31b81526001600160a01b03831660048201526024016105ef565b6001600160a01b03838116600081815260056020908152604080832094871680845294825291829020805460ff191686151590811790915591519182527f17307eab39ab6107e8899845ad3d59bd9653f200f220920489ca2b5937696c31910160405180910390a3505050565b6001600160a01b0383163b1561065357604051630a85bd0160e11b81526001600160a01b0384169063150b7a0290610d5190339088908790879060040161190f565b6020604051808303816000875af1925050508015610d8c575060408051601f3d908101601f19168201909252610d899181019061194c565b60015b610df5573d808015610dba576040519150601f19603f3d011682016040523d82523d6000602084013e610dbf565b606091505b508051600003610ded57604051633250574960e11b81526001600160a01b03851660048201526024016105ef565b805181602001fd5b6001600160e01b03198116630a85bd0160e11b14610e3157604051633250574960e11b81526001600160a01b03851660048201526024016105ef565b5050505050565b60606000610e458361107e565b600101905060008167ffffffffffffffff811115610e6557610e65611444565b6040519080825280601f01601f191660200182016040528015610e8f576020820181803683370190505b5090508181016020015b600019016f181899199a1a9b1b9c1cb0b131b232b360811b600a86061a8153600a8504945084610e9957509392505050565b60008181526007602052604081205460ff1615610eea57506000919050565b6000828152600260205260409020546001600160a01b03168015610f0e57806108b2565b826108b2565b8080610f2857506001600160a01b03821615155b15610fea576000610f3884610aa9565b90506001600160a01b03831615801590610f645750826001600160a01b0316816001600160a01b031614155b8015610f775750610f7581846108ef565b155b15610fa05760405163a9fbf51f60e01b81526001600160a01b03841660048201526024016105ef565b8115610fe85783856001600160a01b0316826001600160a01b03167f8c5be1e5ebec7d5bd14f71427d1e84f3dd0314c0f7b2291e5b200ac8c7c3b92560405160405180910390a45b505b5050600090815260046020526040902080546001600160a01b0319166001600160a01b0392909216919091179055565b611025838383611156565b6105c4576001600160a01b03831661105357604051637e27328960e01b8152600481018290526024016105ef565b60405163177e802f60e01b81526001600160a01b0383166004820152602481018290526044016105ef565b60008072184f03e93ff9f4daa797ed6e38ed64bf6a1f0160401b83106110bd5772184f03e93ff9f4daa797ed6e38ed64bf6a1f0160401b830492506040015b6d04ee2d6d415b85acef810000000083106110e9576d04ee2d6d415b85acef8100000000830492506020015b662386f26fc10000831061110757662386f26fc10000830492506010015b6305f5e100831061111f576305f5e100830492506008015b612710831061113357612710830492506004015b60648310611145576064830492506002015b600a83106104a25760010192915050565b60006001600160a01b038316158015906111b45750826001600160a01b0316846001600160a01b03161480611190575061119084846108ef565b806111b457506000828152600460205260409020546001600160a01b038481169116145b949350505050565b6001600160e01b0319811681146104b757600080fd5b6000602082840312156111e457600080fd5b81356108b2816111bc565b60006020828403121561120157600080fd5b5035919050565b60005b8381101561122357818101518382015260200161120b565b50506000910152565b60008151808452611244816020860160208601611208565b601f01601f19169290920160200192915050565b6020815260006108b2602083018461122c565b80356001600160a01b038116811461128257600080fd5b919050565b6000806040838503121561129a57600080fd5b6112a38361126b565b946020939093013593505050565b600080602083850312156112c457600080fd5b823567ffffffffffffffff808211156112dc57600080fd5b818501915085601f8301126112f057600080fd5b8135818111156112ff57600080fd5b8660208260051b850101111561131457600080fd5b60209290920196919550909350505050565b60008060006060848603121561133b57600080fd5b6113448461126b565b92506113526020850161126b565b9150604084013590509250925092565b60006020828403121561137457600080fd5b6108b28261126b565b60008083601f84011261138f57600080fd5b50813567ffffffffffffffff8111156113a757600080fd5b6020830191508360208285010111156113bf57600080fd5b9250929050565b600080602083850312156113d957600080fd5b823567ffffffffffffffff8111156113f057600080fd5b6113fc8582860161137d565b90969095509350505050565b6000806040838503121561141b57600080fd5b6114248361126b565b91506020830135801515811461143957600080fd5b809150509250929050565b634e487b7160e01b600052604160045260246000fd5b6000806000806080858703121561147057600080fd5b6114798561126b565b93506114876020860161126b565b925060408501359150606085013567ffffffffffffffff808211156114ab57600080fd5b818701915087601f8301126114bf57600080fd5b8135818111156114d1576114d1611444565b604051601f8201601f19908116603f011681019083821181831017156114f9576114f9611444565b816040528281528a602084870101111561151257600080fd5b82602086016020830137600060208483010152809550505050505092959194509250565b6000806040838503121561154957600080fd5b6115528361126b565b91506115606020840161126b565b90509250929050565b6000806000806040858703121561157f57600080fd5b843567ffffffffffffffff8082111561159757600080fd5b6115a38883890161137d565b909650945060208701359150808211156115bc57600080fd5b506115c98782880161137d565b95989497509550505050565b600181811c908216806115e957607f821691505b60208210810361160957634e487b7160e01b600052602260045260246000fd5b50919050565b634e487b7160e01b600052603260045260246000fd5b60006001820161164557634e487b7160e01b600052601160045260246000fd5b5060010190565b6000602080835260008454611660816115d5565b80848701526040600180841660008114611681576001811461169b576116c9565b60ff1985168984015283151560051b8901830195506116c9565b896000528660002060005b858110156116c15781548b82018601529083019088016116a6565b8a0184019650505b509398975050505050505050565b601f8211156105c457600081815260208120601f850160051c810160208610156116fe5750805b601f850160051c820191505b8181101561171d5782815560010161170a565b505050505050565b67ffffffffffffffff83111561173d5761173d611444565b6117518361174b83546115d5565b836116d7565b6000601f841160018114611785576000851561176d5750838201355b600019600387901b1c1916600186901b178355610e31565b600083815260209020601f19861690835b828110156117b65786850135825560209485019460019092019101611796565b50868210156117d35760001960f88860031b161c19848701351681555b505060018560011b0183555050505050565b81835281816020850137506000828201602090810191909152601f909101601f19169091010190565b6020815260006111b46020830184866117e5565b6000815461182f816115d5565b60018281168015611847576001811461185c5761188b565b60ff198416875282151583028701945061188b565b8560005260208060002060005b858110156118825781548a820152908401908201611869565b50505082870194505b5050505092915050565b600085516118a7818460208a01611208565b6118b381840187611822565b905084516118c5818360208901611208565b6118d181830186611822565b98975050505050505050565b6040815260006118f16040830186886117e5565b82810360208401526119048185876117e5565b979650505050505050565b6001600160a01b03858116825284166020820152604081018390526080606082018190526000906119429083018461122c565b9695505050505050565b60006020828403121561195e57600080fd5b81516108b2816111bc56fea2646970667358221220626754400c47e02e7402d218a859400062d936f7d33f06810c4d90b3281b429564736f6c63430008140033",
  "linkReferences": {},
  "deployedLinkReferences": {}
}